:10000000F8FF0020110400001F3100001F31000024
:100010001F3100001F3100001F3100001F310000A0
:100020001F3100001F3100001F3100001F31000090
:100030001F3100001F3100001F3100001F31000080
:100040001F3100001F3100001F3100001F31000070
:10040000FFFFFFFFFFFFFFFFFFFFFFFFFEFFFFFFFD
:1004100062B604F035FEFEE72DE9F04FA1B080464C
:10042000002017461D4602910B900DF1440A6FF013
:1004300000490AE017F8011B0298C0470028029003
:1004400000F0A7820B98401C0B90387808B90B98E5
:10045000A1E22528EED10020059006900790089093
:1004600009900A9001E040F0010017F8011F2029CF
:10047000F9D023290DD02B2904D02D2906D03029DD
:100480000AD00CE040F0020080B2EEE740F0040039
:10049000FAE740F00800F7E740F01000F4E72A29F7
:1004A0000ED12968296051F8042B2960002A0D9289
:1004B00004D5514240F004000D9180B27F1C11E040
:1004C00000210D9109E00D99494505D001EB81030B
:1004D00002EB430130390D917F1C3A78A2F13001D3
:1004E0000A29F0D339782E2903D04FF0FF310C912F
:1004F0001DE017F8011F2A2907D1296829607F1CF0
:1005000051F8042B29600C9211E000210C9109E0B4
:100510000C99494505D001EB810302EB43013039C9
:100520000C917F1C3A78A2F130010A29F0D3ADF882
:1005300038000FF65840397800F036FE08B117F849
:10054000010B8DF83A009DF83A00682802BF39780F
:100550006829622005D06C2804BF38786C2803D144
:1005600071208DF83A007F1C11A8049017F8014BF8
:10057000B4F1250029D01C3800F0C280001F0228E9
:1005800040F2BE80133800F0E380093800F0B880F4
:10059000801E00F04A81401E00F02381401E022888
:1005A00040F2AE80001F00F01C81401F79D0401E39
:1005B00000F0CE80401E24D0C01E0BD0801E00F064
:1005C000C780C01E00F0C48039E125208DF84400AA
:1005D00001203DE12868286050F8046B28600396EC
:1005E0000C9C002C04D5304600F0EAFD044606E0E1
:1005F00022460021304600F0FFFD00B1841B069426
:1006000027E1296829603C2451F8040B2960002166
:10061000CDE9000111A80390DDE90001049E11B9A4
:1006200008B90C9AB2B10206120FA0EB02123032D6
:10063000D2B2631E3A2AA8BF273200099A5540EA6F
:100640000170090908BF00281C4603D0039AA319AA
:100650009A42E8D3A0190390C4F13C010C9806918A
:10066000814209DA401A08904FF6EF71BDF8380060
:100670000840ADF83800ECE0002840F1EA809DF831
:10068000380000F01400102840F0E3800D98059A1F
:10069000801A089A801A441A012CC0F2DA80089451
:1006A000D7E09DF83A0062281AD0682806D06A2858
:1006B0000CD06C281CD0712808D019E0286828605C
:1006C00050F8041B28600B980880C2E02868286056
:1006D00050F8042B28600B98C117C2E90001B8E05C
:1006E0002868286050F8041B28600B980870B0E058
:1006F0002868286050F8041B28600B980860A8E060
:100700002868C01D20F007022A60D2E900010832E3
:100710002A60CDE90001002902D505982D210AE0C3
:10072000BDF83800810702D505982B2103E0C007EA
:1007300005D50598202100F80A10401C059011A845
:100740000599081803902146684600F0E1F980E019
:100750009DF83A006C280DD0712818BF6A2809D17D
:100760002868C01D20F007022A60D2E90001083283
:100770002A6005E02968296051F8040B29600021EE
:10078000CDE900019DF83A00682803D1DDE90001B8
:1007900080B20BE0622803D1DDE90001C0B205E0C0
:1007A000742818BF7A2804D1DDE900010021CDE9C1
:1007B00000019DF8380000072ED5DDE90001002971
:1007C00008BF002828D044F02000782824D10598BC
:1007D000302100F80A10401C411C059100F80A4025
:1007E0001AE09DF83A00294600F0D8F8CDE900015A
:1007F000002902DA05982D210AE0BDF838008107AA
:1008000002D505982B2103E0C00705D505982021C6
:1008100000F80A10401C059011A8059908180390CB
:100820002146684600F0F1F813E0012005902868A1
:10083000286050F8041B28608DF8441009E025203A
:100840008DF84400012005901CB18AF80140022077
:1008500005900D980599401A0899401A0699401A72
:100860000999401A0799401A0A99441A9DF83800C4
:10087000400710D42020012C8DF840000BDB2646C9
:10088000012310AA6946404600F069FC002840F0A8
:100890008080761EF4D1DDF814B0BBF1000F11AEEC
:1008A0000CD016F8011B0298C0470028029070D0A7
:1008B0000B98401CBBF1010B0B90F2D130208DF84E
:1008C0004000089E012E09DB012310AA694640461C
:1008D00000F045FC00285CD1761EF5D1DDF818B09B
:1008E000039EBBF1000F0CD016F8011B0298C04705
:1008F000002802904DD00B98401CBBF1010B0B90CF
:10090000F2D130208DF84000099E012E09DB012331
:1009100010AA6946404600F022FC002839D1761E14
:10092000F5D103980699DDF81CB00E18BBF1000F45
:100930000BD016F8011B0298C047029048B30B98E1
:10094000401CBBF1010B0B90F3D130208DF840001F
:100950000A9E012E08DB012310AA6946404600F0DA
:10096000FEFBB0B9761EF6D19DF8380040077FF542
:100970006CAD2020012C8DF84000FFF666AD012300
:1009800010AA6946404600F0EAFB10B9641EF6D191
:100990005BE54FF0FF3021B0BDE8F08F622826D034
:1009A00068281DD06A2808D06C2827D0712804D068
:1009B000742823D07A280CD020E00868C01D20F0CD
:1009C00007000860D0E90023083008601946104687
:1009D00070470A680A6052F8040B0A6000217047E9
:1009E0000A680A6052F8040B0A6000B20BE00A6859
:1009F0000A6052F8040B0A6040B204E00A680A6018
:100A000052F8040B0A60C11770472DE9FA4E0546EB
:100A10000A462F696F2A08BF082405D041F020003C
:100A2000782814BF0A2410243C26D5E90001642A42
:100A300018BF692A81468A4605D1002903DAD9F10F
:100A400000096AEB4A0ABAF1000F08BFB9F1000FBA
:100A50000CD1286B50B9082C36D195F83800000716
:100A600032D530203B2687F83B002DE0E31748467F
:100A70005146224600F0ECFBA4FB0023A9EB020246
:100A80003032D2B2A6F1010B3A2A5E4603DB9DF862
:100A90000030513B9A180BF8072081465FEA010AA3
:100AA00008BFB9F1000F03D0E868F1198842DDD31F
:100AB000082C09D195F83800000705D5F05D3028DD
:100AC00002D0761E3020F055C6F13C00A861F11925
:100AD000E960296B884208DA081A28624FF6EF713C
:100AE000288F08402887BDE8F38E00290ED595F899
:100AF000381001F01401102908D1696B6A69891A4C
:100B00002A6A891A0E1A012EA8BF2E62BDE8F38E3A
:100B10002DE9F24F04468EB0D4E90001CDE902017F
:100B200004AF9DF8380040F0200BBBF1610F0AD0F4
:100B3000206B002848BF062004D408BFBBF1670F14
:100B400001D1012020636168C1F30A5040F2FF72B5
:100B500090421CD1080304BF2068002809D103205B
:100B6000A0619DF8380061381A2836D30FF2306141
:100B700008E00320A0619DF8380061381A2829D3C5
:100B80000FF21461E068032200F0DAFBBEE10128F5
:100B900016DA204600F00FFC012811DB00250020AA
:100BA000BBF1610F20D1E168302201F8012B4A1C12
:100BB000E2609DF83820612A0CBF782258220FE0AD
:100BC000626840F2FE3161F31E52451A62604FF0D6
:100BD000FF30E5E70FF2BC51D4E70FF2C051D1E787
:100BE0000A706169891C616110B90026002584E1E1
:100BF000BBF1610F40F09880206B00284CBF21268C
:100C0000461CD4E900ABDDE902010022002300F01C
:100C1000F3FB36B23ABF8BF00040CDE902A0CDE93C
:100C200002AB06F101082D1FB8F1010F8DF810205D
:100C30000DF1110736DBDDE902010022002300F08F
:100C4000F3FB2FD21C2102A800F006FCDDE9020113
:100C500000F08CFCA8F10708B8F1010F814609DB10
:100C600000F0B0FC02460B46DDE9020100F0C2FCD8
:100C7000CDE90201F81D072105E009F00F0200F897
:100C8000012D4FEA2919B9F1010F01DB491EF4D5F5
:100C9000491E5CBF002200F8012DF9D5C71DB8F12F
:100CA000010FC8DA0DF11100391AB142B8BF0E4672
:100CB00036B230000DF111072FD4884206DA04A9AC
:100CC000411849780829A8BF0F2100DA002104AA99
:100CD000821800E0761E12F80139401E8B42F9D0CE
:100CE0000F2904D104A941184A78521C4A700028DF
:100CF00002D504AF761C2D1D36B2701E0DD4C1195D
:100D00000A783032D2B23A2A03DB9DF838303A3BC7
:100D10009A18401E01F80129F2D5206B002840F1F5
:100D2000EC80701E2063E8E0DDE902010022002370
:100D300000F062FB3CBF81F00041CDE902012DB221
:100D400047F2975068434B49DFF82C9190FBF1F53F
:100D50002DB2C5F1070ABAF1010F90461CDBDDE99F
:100D600002675FEACA7007D542464B4630463946AD
:100D700000F000FD06460F464046494642464B46B7
:100D80004FEA6A0A00F0F6FCBAF1000F8046894685
:100D9000E7D1CDE9026724E0CAF1000A0026374F07
:100DA00014E05FEACA7007D542464B4630463946E2
:100DB00000F0E0FC06460F464046494642464B4698
:100DC00000F0D8FC4FEA6A0A80468946BAF1000F63
:100DD000E7D1DDE9020132463B4600F09DFDCDE959
:100DE0000201BBF1660F0CBF05F10A000620216B62
:100DF000DFF88C904618142EA8BF132630208DF8EB
:100E000010000DF11107012E3CDBDDE9020100F0BD
:100E1000C3FB07F1080104220A23B0FBF3F303EB41
:100E20008307A0EB4700303001F8010C0A20B3FB28
:100E3000F0F000EB8007A3EB47033033521E01F8BC
:100E4000023DE9D1083E012E01F10807DBDBDDE9B7
:100E5000020100F0A1FB00F0BFFB02460B46DDE9FA
:100E6000020100F0C7FB00224B4600F083FCCDE9F5
:100E70000201CAE7A0860100000024400000F03F04
:100E800084D797410DF11100381A0DF1110702E0D6
:100E9000401E6D1E7F1C39783029F9D0BBF1660FDA
:100EA00002D12DB2691C04E0BBF1650F0CBF01211A
:100EB0000021226B8E1836B2B042B8BF064636B259
:100EC00031001AD4814204DAC85D3528A8BF392020
:100ED00000DA3020CA19521E00E0761E12F80139DD
:100EE000491E8342F9D0392802D1C85D401CC8553B
:100EF000002902D57F1E761C6D1C2DB29DF838107E
:100F0000009533B23A46204600F003F80FB0BDE832
:100F1000F08F2DE9F04786B006468A4690461D467A
:100F200000F043FE012D406A376B90F8009002DA22
:100F300001250FF270284AF02000BDF938406628DC
:100F400008BF641C12D0672876D114F1040F79DB36
:100F5000BC4277DA96F83800641C000702D4BD4220
:100F6000B8BF2F4624B23F1B48BF002724B2F06809
:100F7000B169012C21DA4A1C30230B54012F03DA0A
:100F800096F83810090702D502F80090521CB26199
:100F9000E742B8BF7C4224B26142E7197162AF42B6
:100FA000B8BF3D46B3692DB2F5612A4641461818CF
:100FB00000F0C6F9781BB062BAE00818A54216DA4C
:100FC0002A46414600F0BCF9B1696918601B012F3F
:100FD000B161706203DA96F83800000705D5F06851
:100FE00001F80090F069401CF061B762A0E0224671
:100FF000414600F0A5F9B06920182D1B012F03DA36
:1010000096F83810090703D5F16800F80190401CE4
:101010002DB2B061AF42B8BF3D46F068B3692DB2A2
:101020002A4604EB0801181800F08AF9B06928185C
:10103000B061781B70627BE0BAF1610F14D14FF0A0
:10104000700A16E0BD4204DA96F83810090758BF56
:101050002F467F1E48BF0027BAF1670F14BF4FF01D
:10106000450A4FF0650A04E0BAF1410F08BF4FF09E
:10107000500AB169F0684A1CB261012F18F8013BAF
:101080000B5403DA96F83810090715D5531CB361D1
:1010900002F80090012F0FDB6D1E2DB2AF42B8BFDA
:1010A0003D462DB22A464146181800F049F9B0696C
:1010B0002818B061781B7062F068B16909182000C7
:1010C00081F800A004D42B20487001F1020804E04C
:1010D0002D224A7001F102086442002502AF08E0A7
:1010E0000A22684600F07AFD019807F8010B6D1C92
:1010F000009C21B20129F3DA022D06DA4AF0200021
:10110000652804BF302008F8010B4DB9302008F8DD
:10111000010B07E06D1E02A8285C303008F8010BB7
:10112000012DF7DAF068B1690818A8EB0000F0614A
:1011300096F8380000F0140010280DD17069B169DC
:101140000818716A0818F1690818B16A0818716BF3
:101150008842BCBF081A306206B0BDE8F087F8B517
:1011600004460D4616461F46002077B116F8011BAF
:10117000A868A047A86030B1E86A401CE862002077
:101180007F1EF3D1F2BD4FF0FF30F2BD686A6C7480
:101190007A4C00006E616E004E414E00696E660032
:1011A000494E4600300000000278C9B28A421AB1A6
:1011B0001CBF10F8012FF9E718BF0020704700008E
:1011C00000F10103810704D010F8011B89B18107E8
:1011D000FAD10268B2F10131914311F0803F04BFAE
:1011E00050F8042FF6E710F8011B11B110F8011B9D
:1011F000FBE7C01A70470000C9B2830706D0521E31
:1012000022D310F8013B9942F7D11FE0083A13D3DB
:1012100002F1040241EA012141EA014150F8043B94
:10122000121F21BF4B40A3F1013C2CEA030C1CF020
:10123000803FF3D0C9B2001F083210F8013B521EA4
:1012400028BF91EA030FF8D818BF0120401E70474D
:101250001B4213D1094236D12AB18446B0FBF2F0C9
:1012600002FB10C2704700F0C1BCFCD30022002377
:1012700070470B000200002100207047904271EB84
:10128000030CF6D370B5B1FA81F4B3FA83F52C1BD5
:10129000A340C4F1200532FA05F63343A2405FF0C3
:1012A0000046E64002E05B085FEA3202841A71EB16
:1012B000030524BF204629467641F4D302000B00E3
:1012C0003000002170BD012ACFD970B5140C20D098
:1012D000B1FA81F4B2FA82F5C4F120046419B4F1D0
:1012E0002006D6D3B2405FF00044F440002502E06F
:1012F00052085FEA3303C61A71EB020E24BF304670
:10130000714664416D41F3D302000B0020002900B7
:1013100070BD0C46B1FBF2F102FB11452D0445EA0C
:101320001045B5FBF2F402FB145580B240EA0545C6
:10133000B5FBF2F002FB105240EA044070BD000021
:1013400062B38B0708D0521E11F8013B00F8013B35
:1013500000F024808B07F6D1830740F0208000BF87
:10136000103A07D330B4B1E83810103AA0E838107A
:10137000F9D230BC530724BFB1E80810A0E8081028
:1013800044BF51F8043B40F8043BD20724BF31F876
:10139000022B20F8022B44BF0B7803707047083AE9
:1013A00007D3B1E80810083A40F8043B40F804CBF2
:1013B000F7D25307E4E730B4436803F00042012159
:1013C0001B031B0B436004BF0368002B08D10DE017
:1013D0000368DD0F45EA440444605B000360491E76
:1013E0004468E302F4D523031B0B436043681A43AC
:1013F0004260084630BC70474FF4001C1CEB410FA4
:1014000094BF1CEB430F09E041EA030C50EA4C0C7B
:1014100052EA0C0C03D2994208BF9042704714BFA5
:101420008B428242704700004FF4001C1CEB410FBE
:1014300094BF1CEB430F09E041EA030C50EA4C0C4B
:1014400052EA0C0C03D28B4208BF8242704714BF91
:10145000994290427047000070B504460D4660689E
:10146000C0F30A5040F2FF71884207D16068000360
:1014700004BF2068002817D0022070BD20B9204684
:10148000FFF799FF012866DA012D0FDB40F2FF71AB
:10149000091A8D420AD3606800284CBF9FED2F0BBC
:1014A0009FED300B84ED000B012070BD4142A9423D
:1014B000616806DA6FF31E51401941EA005060601E
:1014C00040E0401E63684519012205F1350062F3D2
:1014D0001F53352801F00041636003D36160002091
:1014E000206070BD002015F11F0F04DA2068236012
:1014F0000022203562606A4212D0401E2568804179
:10150000C2F12003C0439D4045EAD070256866685B
:10151000D54006FA03F32B4323606368D34063602E
:1015200062680A43B0F1004F626003D80DD12078A1
:10153000C0070AD52068401C2060206828B9606870
:10154000401C60604FF0FF3070BD6068884204BF8F
:1015500020680028F6D1002070BD00BF0000000008
:101560000000F0FF000000000000F07FF446400D96
:1015700040EAC120490006D200F014F8004248BFFA
:101580006FF00040604700F00DF84FF000418842D6
:101590008CBF084640426047400D40EAC1204900E8
:1015A00080F00D8040F00040490DA1F58061491C9C
:1015B00005D4D1F11F0154BFC840C01770474FF088
:1015C00000007047010040F10980F446404200F0FD
:1015D00005F851F000416047010000BF09D0B0FAA2
:1015E00080F18840C91CC1F58461090501EBD02157
:1015F00040057047F0B44FF0004591EA030F44BF37
:101600006B4000F0F5BA00BF841A71EB030604D2F8
:101610006E40001BB141121973414FF4001C1CEBCA
:10162000410F34BF7CEB430684E00C0DA4EB135652
:10163000362E7DDC012E43DC45EAC32343EA5253B8
:1016400012BFD20292025B08240545EAC12141EA99
:101650005051D2EBC020994125D407D1B0FA80F681
:1016600010FA06F164D00020203608E0B1FA81F6C5
:10167000B140C6F1200220FA02F21143B0404FEA15
:10168000F474B4EB465434F001064FEA74040AD8FB
:10169000D6F50016760D04F00044F04061FA06F22B
:1016A0005040F1404840C00A40EA415021F000411A
:1016B00028BF5FEA500550F1000044EBD12137E02C
:1016C00045EAC323DB0A45EAC121C90AB6F1200570
:1016D0000EDD42EA0242120CC5F1200603FA06F6BC
:1016E000EB4042EA06056D42984161F100010DE0D0
:1016F00062FA06F5F240554063FA06FC82EA0C02F3
:10170000F3405A406D42904161EB030111F4801F98
:1017100005D1641E620502D06D004041494121F4AB
:101720008011430875F1004350F1000041EB045172
:10173000F0BC70471CEB410F15D223F0004352EA76
:1017400043060BD04FEA4C0CBCEB410F04D80C0DF8
:10175000661E342EB7DDEBE7801A994150EA410648
:1017600008BF0021E4E708BF1CEB430F28BF6FF060
:101770000001DDE7B0B581EA030C0CF0004C40F24B
:10178000FF7515EA11541DBF15EA1357AC42AF425D
:1017900039E0E41923EA455343F48013C90241F0C8
:1017A000004141EA505EC7021100A7FB0202002877
:1017B0004FF00000EEFB01204FF00001E3FB07219A
:1017C00018BF42F00102401800214941E3FB0E011D
:1017D000A4F580640F0302D252004041494154F104
:1017E00001046CDD470872F1004250F1000051EB3A
:1017F0000451A1F580115CBF41EA0C01B0BD4CEA77
:1018000005510020B0BD05EA1357AC4214BFAF42EA
:1018100041E050EA410E1CBF52EA430E02E061462D
:101820000020B0BD24423C441BD15FEA070EF6D035
:10183000090302BF01460020AEF1140EB1FA81F790
:10184000AEEB070401FA07FE0C37C7F1200100FADE
:1018500007F7C8404EEA000E23EA455343F48013CD
:10186000A2E733F00043B3FA83F704BFB2FA82FE73
:1018700077440B3FE41BB7F1200E2FBF02FA0EF3A3
:10188000BB40C7F1200E22FA0EFE38BF43EA0E031A
:10189000BA40641C82E750EA410E14BF52EA430E7C
:1018A0006FF000014FF4001717EB430F8ABF194682
:1018B00017EB410FB5E74CEA05510020B0BDD4F15C
:1018C0000104B4F120070FDAC4F12007520828BF41
:1018D00042F0010210FA07F501FA07F7E1BF2A43C7
:1018E000E0403843E1400FE0352C98DCC7F120049C
:1018F00052EA400220FA07F218BF42F0010231FA20
:1019000007F0A1400A43002172F1004250F10000AB
:1019100051EB0C01B0BD00002DE9F04140F2FF7524
:1019200081EA030C0CF0004C15EA11541DBF15EAB6
:101930001357AC42AF42E9E0BC41C1F31301C3F31A
:101940001303801A994143F4801304D2641E4000AB
:10195000494180185941C90241EA5051B1FBF3F69F
:1019600003FB1611A2FB0675D7EBC020A94102D2DA
:10197000761E80185941C90241EA5051B1FBF3FE6D
:1019800003FB1E11A2FB0E75D7EBC020A94103D2A9
:10199000AEF1010E80185941890241EA9051760555
:1019A00046EA8E2EB1FBF3F603FB1611A2FB067579
:1019B000D7EB8020A94102D2761E80185941C90276
:1019C00041EA50514EEA060EB1FBF3F603FB161145
:1019D000A2FB0675D7EBC020A94102D2761E801863
:1019E0005941C90241EA5051B1FBF3F703FB17110A
:1019F000A2FB0735D3EBC020A94167F100070CBF5C
:101A0000004247F0010766F3D5274FEA1E31B808B8
:101A100014F5806414DDBD0775F1004250EB0E50E3
:101A200051EB045111F5801F5CBF41EA0C01BDE888
:101A3000F0814CF07F6141F0E0410020BDE8F08191
:101A4000BD076D0840EA0E5041F48011D4F1010445
:101A5000B4F120060ADAC4F120060200E04001FADF
:101A600006F3E1401843B24015430EE0342C14DC79
:101A7000C6F1200445EA40056D0820FA06F2154338
:101A800021FA06F0A1400D43002175F1004250F10A
:101A9000000051EB0C01BDE8F08100205FEA0C0171
:101AA000BDE8F081CFB992185B41B3FA83F704BF68
:101AB000B2FA82F6BF190B3FB7F120062FBF02FA28
:101AC00006F3BB40C7F1200622FA06F638BF3343BF
:101AD000BA401CB1E419641E2FE77F4231F0004187
:101AE000B1FA81F404BFB0FA80F6A4190B3CB4F14A
:101AF00020062FBF00FA06F1A140C4F1200620FA0B
:101B000006F638BF3143A0403C1B16E7AC421ABF73
:101B100005EA1357AF4214E050EA41061CBF52EAEF
:101B20004306BFE750EA4107304661461CBF41EA21
:101B30000551BDE8F08152EA430C08BFC143BDE83E
:101B4000F08100204FF4001616EB410F98BF16EB02
:101B5000430F08BF16EB410F24BFC14305E016EB4E
:101B6000430F0CBF61464CEA0551BDE8F08100000F
:101B700080B51348C046C0460FF24C020FF2440134
:101B80000160426241600FF24402826381600FF2A1
:101B90004402C1600161416181618162C16201638E
:101BA0004163C2630164416401BD10B50448C0468D
:101BB000C0460446206808B9FFF7DAFF204610BD8A
:101BC000C412FF1F000000002E00000066616C734D
:101BD00065000000747275650000000091FBF2F36F
:101BE00003FB1211C0E9003170470000704700008C
:101BF000841A71EB030603D2001BB1411219734121
:101C00004FF4001C1CEB410F34BF7CEB430443E05A
:101C10000C0DA4EB1356352E50DC45EAC323DB0A2A
:101C200045EAC121C912B6F120050DDD63FA05F6BA
:101C3000EB4086EA0305124218BF45F00105C018C3
:101C400051F100010CD213E062FA06F5F240554062
:101C5000F3415A40B340F3405A408018594107D3EA
:101C600049085FEA30005FEA350528BF45F0010505
:101C700001F58011420875F1004250F1000041EB7E
:101C80000451F0BC4FF4001C1CEB410F38BF7047EF
:101C90000020090D090570471CEB410F10D252EAD4
:101CA00043060BD0BCEB410F05D80C0DAB43661EB1
:101CB000342EB5DD02E0AB4380185941F0BC7047CB
:101CC000F0BC7047000000000000000000000000B1
:101CD0000000000000000000000000000000000004
:101CE00000004E6F6E4D61736B61626C65000000A9
:101CF00000486172644661756C7400000000000069
:101D00004D656D4D616E6167656D656E7400004275
:101D100075734661756C7400000000000000557317
:101D20006167654661756C7400000000000000008A
:101D300000000000000000000000000000000000A3
:101D40000000000000000000000000000000000093
:101D50000000000000000000000000000000000083
:101D6000000000000000000000535643616C6C004E
:101D7000000000000000000044656275674D6F6E52
:101D800069746F7200000000000000000000000095
:101D900000000000000050656E6453560000000013
:101DA00000000000005379735469636B0000000069
:101DB00000000000444D4130000000000000000021
:101DC000000000444D413100000000000000000010
:101DD0000000444D413200000000000000000000FF
:101DE00000444D41330000000000000000000000EE
:101DF000444D413400000000000000000000004499
:101E00004D41350000000000000000000000444D7E
:101E100041360000000000000000000000444D4179
:101E2000370000000000000000000000444D413871
:101E30000000000000000000000000444D41390097
:101E400000000000000000000000444D413130005F
:101E5000000000000000000000444D41313100004E
:101E60000000000000000000444D4131320000003D
:101E700000000000000000444D413133000000002C
:101E8000000000000000444D41313400000000001B
:101E90000000000000444D4131350000000000000A
:101EA00000000000444D415F4572726F72000000F7
:101EB0000000004D434D0000000000000000000045
:101EC00000004654464C00000000000000000000E6
:101ED00000526561645F436F6C6C6973696F6E007B
:101EE0004C56445F4C565700000000000000004C68
:101EF0004C57000000000000000000000000576187
:101F0000746368646F6700000000000000524E4771
:101F100000000000000000000000000049324330D3
:101F200000000000000000000000004932433100C2
:101F30000000000000000000000053504930000085
:101F40000000000000000000005350493100000074
:101F50000000000000000000535049320000000063
:101F60000000000000000043414E305F4F525F4DC3
:101F7000425F6275660043414E305F4275735F4F4A
:101F8000666600000043414E305F4572726F72001A
:101F90000000000043414E305F54785F5761726E1D
:101FA000696E6743414E305F52785F5761726E6968
:101FB0006E6743414E305F57616B655F557000003F
:101FC000005265736572766564353100000000006B
:101FD0005265736572766564353200000000004317
:101FE000414E315F4F525F4D425F62756600434123
:101FF0004E315F4275735F4F666600000043414E8D
:10200000315F4572726F72000000000043414E3133
:102010005F54785F5761726E696E6743414E315FFE
:1020200052785F5761726E696E6743414E315F57F8
:10203000616B655F5570000000526573657276656F
:10204000643539000000000052657365727665647E
:102050003630000000000055415254305F52585F46
:1020600054580000000055415254305F4552520010
:10207000000000000055415254315F52585F5458DF
:102080000000000055415254315F4552520000009B
:1020900000000055415254325F52585F54580000BE
:1020A000000055415254325F45525200000000007A
:1020B0000055415254335F52585F5458000000009D
:1020C00055415254335F4552520000000000005504
:1020D000415254345F52585F54580000000055413B
:1020E0005254345F455252000000000000554152E6
:1020F00054355F52585F5458000000005541525407
:10210000355F45525200000000000041444330005A
:1021100000000000000000000000414443310000C6
:10212000000000000000000000434D50300000009F
:102130000000000000000000434D5031000000008E
:1021400000000000000000434D503200000000007D
:1021500000000000000046544D3000000000000068
:10216000000000000046544D310000000000000057
:102170000000000046544D32000000000000000046
:10218000000000434D54000000000000000000006B
:102190000000525443000000000000000000000056
:1021A0000052657365727665643833000000000084
:1021B00050495430000000000000000000000050B2
:1021C00049543100000000000000000000005049A8
:1021D000543200000000000000000000005049548C
:1021E00033000000000000000000000050444230B6
:1021F00000000000000000000000005553423000C5
:102200000000000000000000000055534244434419
:10221000000000000000000000454E45545F3135CD
:1022200038385F54696D6572454E45545F5472612C
:102230006E736D69740000454E45545F5265636569
:10224000697665000000454E45545F4572726F72B5
:102250000000000000493253300000000000000080
:10226000000000005344484300000000000000004C
:102270000000004441433000000000000000000066
:102280000000444143310000000000000000000055
:10229000005453493000000000000000000000001E
:1022A0004D43470000000000000000000000004C0B
:1022B0005054696D65720000000000000000526516
:1022C00073657276656431303200000000504F5201
:1022D000544100000000000000000000504F525424
:1022E0004200000000000000000000504F52544324
:1022F00000000000000000000000504F5254440055
:10230000000000000000000000504F525445000043
:10231000000000000000000052657365727665647D
:1023200031303800000000526573657276656431A3
:102330003039000000005265736572766564313192
:10234000300000000052657365727665643131318A
:1023500000000000526573657276656431313200A9
:102360000000005265736572766564313133000098
:102370000000526573657276656431313400000087
:102380000052657365727665643131350000000076
:102390005265736572766564313136000000005213
:1023A00065736572766564313137000000005265EF
:1023B00073657276656431313800000000526573D0
:1023C00065727665643131390000000000F00F401D
:1023D00040F00F4080F00F40C0F00F4000F10F4080
:1023E00066000A1D32000701640007106E00040633
:1023F000780004088200040A8C00040C9600040E85
:10240000A0000410AA000412B4000414BE000416B4
:10241000C8000418D200041ADC00041CE100041DEA
:10242000E600041EEB00041FF4000317FA00031873
:10243000130101062C010214000109080090044058
:1024400000A0044000B0044000C0044000D004409C
:1024500000A0064000B0064000C0064000D0064084
:1024600000A00E4000B00E400F1108100947484967
:102470006D6E6B6A69000000343536370204010165
:102480007012FF1FC012FF1F7012FF1F7012FF1F7C
:102490007012FF1F050CFF1FEC0BFF1F0000000058
:1024A000000000000000000000000000000000002C
:1024B0000000000000000000000000000800030011
:1024C000080000002DE9F84F82460C0015001E00A0
:1024D0000A9FDDF82C8098F8009098F801008DF89C
:1024E000000016EB0A0ADFF80C05007B10F0030071
:1024F000C0B2002803D002281CD032D34CE0287888
:1025000080213141084202D09DF8002002E05FFAAC
:1025100089F94A462100504600F032FA1AF1010AC0
:10252000761C082E02D1002006006D1C7F1E002F95
:10253000E5D131E0287880213141084205D09DF86D
:1025400000202100504600F01BFA1AF1010A761C07
:10255000082E02D1002006006D1C7F1E002FE9D13D
:102560001AE028788021314108420AD021005046E3
:1025700000F010FA8346DBF1FF022100504600F024
:10258000FFF91AF1010A761C082E02D1002006007C
:102590006D1C7F1E002FE4D1BDE8F18F2DE9FE4FA9
:1025A00007000C009146DDF830A00D9D99F8006001
:1025B000DDF808800298C719DFF83804007B10F0B6
:1025C0000300C0B2002802D0022855D0AEE0002D92
:1025D0002BD0D8F1030040000090F6B2C020009943
:1025E000D1F10601084110EA060B00985BFA00FBE6
:1025F0001BF805008DF804009DF804202100380028
:1026000000F0BEF97F1C18F10108B8F1040F06D1E3
:102610000020804619F1010999F800000600BAF17E
:10262000010ABAF1000FD4D125E0D8F1030040002F
:102630000090F6B2C0200099D1F10601084110EADD
:10264000060B00985BFA00FB5A462100380000F0A8
:1026500097F97F1C18F10108B8F1040F06D100208A
:10266000804619F1010999F800000600BAF1010A43
:10267000BAF1000FD9D159E0002D2ED0D8F10300C6
:1026800040000090F6B2C0200099D1F10601084147
:1026900010EA060B00985BFA00FBBBF1000F09D0B3
:1026A0001BF805008DF804009DF804202100380077
:1026B00000F066F97F1C18F10108B8F1040F06D18B
:1026C0000020804619F1010999F800000600BAF1CE
:1026D000010ABAF1000FD1D128E0D8F1030040007F
:1026E0000090F6B2C0200099D1F10601084110EA2D
:1026F000060B00985BFA00FBBBF1000F04D05A46B2
:102700002100380000F03CF97F1C18F10108B8F1F5
:10271000040F06D10020804619F1010999F8000044
:102720000600BAF1010ABAF1000FD6D1BDE8F78F61
:102730002DE9FE4F07000C009146DDF830A00D9DFD
:1027400099F80060DDF808800298C719A948007B55
:1027500010F00300C0B2002802D0022855D0AEE02D
:10276000002D2BD0D8F1010080000090F6B2F020AF
:102770000099D1F10401084110EA060B00985BFAB8
:1027800000FB1BF805008DF804009DF804202100D3
:10279000380000F0F5F87F1C18F10108B8F1020FBD
:1027A00006D10020804619F1010999F800000600C1
:1027B000BAF1010ABAF1000FD4D125E0D8F1010035
:1027C00080000090F6B2F0200099D1F10401084198
:1027D00010EA060B00985BFA00FB5A46210038000D
:1027E00000F0CEF87F1C18F10108B8F1020F06D1F5
:1027F0000020804619F1010999F800000600BAF19D
:10280000010ABAF1000FD9D159E0002D2ED0D8F12C
:10281000010080000090F6B2F0200099D1F104018F
:10282000084110EA060B00985BFA00FBBBF1000FB1
:1028300009D01BF805008DF804009DF80420210044
:10284000380000F09DF87F1C18F10108B8F1020F64
:1028500006D10020804619F1010999F80000060010
:10286000BAF1010ABAF1000FD1D128E0D8F1010084
:1028700080000090F6B2F0200099D1F104010841E7
:1028800010EA060B00985BFA00FBBBF1000F04D0C6
:102890005A462100380000F073F87F1C18F1010837
:1028A000B8F1020F06D10020804619F1010999F80C
:1028B00000000600BAF1010ABAF1000FD6D1BDE856
:1028C000F78F2DE9F84304000D0016001F00DDF816
:1028D00020804848007B10F00300C0B2002802D0DE
:1028E00002281FD04AE0B8F1000F0FD0012F18DBEB
:1028F000307881465FFA89F919F80820290020000C
:1029000000F03EF87F1E641C761CEFE7012F08DB09
:1029100032782900200000F033F87F1E641C761CFA
:10292000F4E72BE0B8F1000F14D0012F26DB30784C
:1029300081465FFA89F9B9F1000F07D05FFA89F98A
:1029400019F808202900200000F01AF87F1E641CE6
:10295000761CEAE7012F11DB307881465FFA89F9AE
:10296000B9F1000F06D05FFA89F94A462900200024
:1029700000F006F87F1E641C761CEBE7BDE8F183CF
:1029800070B504000D00160032002900200000F090
:1029900075F970BD020000231800C0B2704770B511
:1029A00004000D0029002000FFF7F4FF0600F6B236
:1029B000D6F1FF0229002000FFF7E2FF70BD70B5DD
:1029C00004000D0016000B48007BC00707D5A64287
:1029D0000FDB29002000FFF7E2FF641CF7E7A642A7
:1029E00007DB0448427829002000FFF7C9FF641C78
:1029F000F5E770BD0C0EFF1FF8B504000D001600C2
:102A00001F00AF4206DB320029002000FFF7D7FF8E
:102A10006D1CF6E7F1BD2DE9FE4F04000D00160018
:102A20000D9FDDF83880DDF83C90DDF840A00020F7
:102A300083460298834538DA0C98012806D002288C
:102A40000FD0042818D0082821D029E0CDF804A000
:102A500000964B46424615EB0B012000FFF732FD76
:102A60001EE0CDF804A000964B46424615EB0B0144
:102A70002000FFF793FD13E0CDF804A000964B462D
:102A8000424615EB0B012000FFF752FE08E0CDF89F
:102A900000A03300424615EB0B012000FFF711FFA9
:102AA00017EB08081BF1010BC3E7BDE8F78F80B5F2
:102AB00000F057F8002002BD38B5040008250121B8
:102AC000622000F0A8F90021612000F0A4F908209C
:102AD00005002DB2012D15DB200604D50121632050
:102AE00000F099F903E00021632000F094F901213E
:102AF000612000F090F90021612000F08CF9640061
:102B00006D1EE6E731BD38B50400082500216220BE
:102B100000F081F90021612000F07DF90820050016
:102B20002DB2012D15DB200604D50121632000F014
:102B300072F903E00021632000F06DF901216120AA
:102B400000F069F90021612000F065F964006D1E54
:102B5000E6E731BD10B5040024B2200000F0EDF925
:102B600010BD80B500220121622000F0FDF8002296
:102B70000121642000F0F8F800220121632000F018
:102B8000F3F800220121612000F0EEF8012161201C
:102B900000F041F90021642000F03DF93220FFF7F8
:102BA000D9FF0121642000F036F97FF05100FFF7D2
:102BB000AAFF0020FFF7A7FF1020FFF7A4FF402087
:102BC000FFF7A1FF7FF07E00FFF79DFF7FF0300051
:102BD000FFF799FF7FF05E00FFF795FF7FF03F0062
:102BE000FFF791FF7FF05900FFF78DFF7FF057004F
:102BF000FFF789FF3F20FFF786FF7FF02C00FFF7EC
:102C000082FF0020FFF77FFF7FF02A00FFF77BFFA6
:102C10007FF07F00FFF777FF7FF02600FFF773FF5D
:102C20007FF00E00FFF76FFF7FF02500FFF76BFFCF
:102C30001220FFF768FF7FF02400FFF764FF4020B9
:102C4000FFF761FF2020FFF75EFF0220FFF75BFF29
:102C50007FF07200FFF757FF1420FFF754FF7FF05B
:102C60005B00FFF750FF7FF05900FFF74CFF7FF04C
:102C70005000FFF748FF00F059F801BDF0B40025FF
:102C800049B2082691FBF6F6D6F10706330049B2A1
:102C9000082691FBF6F707FB16173C000126D4F136
:102CA0000707BE40350052B2002A0DD02D4E40B26B
:102CB00016EBC0061BB22B4F40B217EBC0071BB27E
:102CC000DF5D2F439F550CE0264E40B216EBC00649
:102CD0001BB2244F40B217EBC0071BB2DF5DAF43FE
:102CE0009F55F0BC704738B50020040024B2082C72
:102CF0001BDA2000503840B2FFF705FF0020FFF735
:102D000002FF1020FFF7FFFE002005002DB2802DEE
:102D100009DA14482DB210EBC50024B22056FFF793
:102D2000CBFE6D1CF2E7641CE0E731BD38B5002432
:102D300000250020040024B2082C0FDA0020050032
:102D40002DB2802D08DA07482DB210EBC50024B251
:102D5000002121546D1CF3E7641CECE7FFF7C3FF6F
:102D600031BD0000640EFF1F70B504000D00160099
:102D70004FF480712000C0B200F0F6F86DB2002D63
:102D800011D15E48E4B2611150F821005B49E4B210
:102D9000621151F822104969012214F01F039A4070
:102DA0009143416136E05548E4B2611150F8210089
:102DB0005249E4B2621151F822104969012214F01B
:102DC0001F039A4011434161F6B2002E11D14B48C6
:102DD000E4B2611150F821000068012114F01F02D3
:102DE000914088434549E4B2621151F822100860CD
:102DF00010E04248E4B2611150F82100006801215E
:102E000014F01F02914008433C49E4B2621151F8AA
:102E10002210086070BD38B504000D003748E4B2D8
:102E2000611150F82100406914F01F01C840C0072B
:102E300003D46321324800F008F9EDB2002D11D11E
:102E40002E48E4B2611150F821000068012114F00D
:102E50001F02914088432949E4B2621151F82210BF
:102E6000086010E02548E4B2611150F821000068C4
:102E7000012114F01F02914008432049E4B262117D
:102E800051F82210086031BD10B504001B48E4B2AF
:102E9000611150F82100406914F01F01C840C007BB
:102EA00003D47B21164800F0D0F81448E4B2611135
:102EB00050F82100012114F01F029140C16010BDA3
:102EC00010B504000D48E4B2611150F821004069CA
:102ED00014F01F01C840C00703D58C21084800F03A
:102EE000B4F80648E4B2611150F82100006914F00A
:102EF0001F01C84010F0010010BD0000180BFF1F9B
:102F00009453000010B50400002C15D0B4F1807F5C
:102F100003D329210F4800F098F800200E490860DB
:102F20000E48046000200E49086005200A49086028
:102F300009480068C003FBD510BD10B5040020008F
:102F4000441E002804D007480068FFF7DBFFF6E7BF
:102F500010BD00005853000010E000E014E000E055
:102F600018E000E06412FF1F10B42B4A13684FF4FE
:102F700000740200D2B2520914FA02F21A43264B2C
:102F80001A60264AC0B2431152F82320012310F0E0
:102F90001F04A340C2F8A030204AC0B2431152F827
:102FA0002320C0B210F01F0342F8231010BC70475A
:102FB00010B4194A13684FF400740200D2B25209D7
:102FC00014FA02F21A43144B1A60144AC0B24311A5
:102FD00052F82320012310F01F04A340C2F8A030B0
:102FE00031F4E0610D4AC0B2431152F82320C0B25F
:102FF00010F01F0352F8232012F4E0621143074A35
:10300000C0B2431152F82320C0B210F01F0342F89F
:10301000231010BC7047000038800440880BFF1F4D
:10302000DFF800F0410CFF1FDFF800F0650CFF1F18
:10303000BFF34F8F4648006810F4E06045490843ED
:1030400043490860BFF34F8FFEE738B504000D0019
:10305000002000F08DF82A0021003F4800F0C0F861
:10306000002000F0A2F84FF47A70FFF766FFF2E755
:1030700038B504000D00210049B2042000F0CCF95D
:10308000200032BD10B50024042000F0DFF9042038
:1030900000F012FA002841D1002000F069F8042065
:1030A00000F00AFA012801D101200400002000F0FC
:1030B0007CF82A4800F094F84FF4FA70FFF73DFFCF
:1030C000E4B2012CEBD1042000F0F6F90028E6D19F
:1030D000042000F0F1F9002806D1002000F065F886
:1030E0006420FFF72AFFF3E7042000F0E5F9012848
:1030F00006D1002000F059F83220FFF71EFFF3E759
:10310000174800F06DF8FFF78BFF6420FFF715FFFD
:103110000020FFF789FFFFF78BFFC0E710BD10B558
:1031200010480468012000F023F8012000F03DF869
:103130000D48E4B20F2101FB0402E4B221000B4868
:1031400000F04EF84FF47A70FFF7F7FEEDE700005D
:103150000CED00E00400FA0588540000B4550000AE
:103160000055000004ED00E01004FF1FE0520000D5
:1031700010B5040064B2042C07DA012201211748BB
:1031800064B2205CFFF7F0FD0EE004200400200094
:10319000441E40B2002807D0012201210F4864B22A
:1031A000205CFFF7E1FDF2E710BD10B5040064B24A
:1031B000042C05DA094864B2205CFFF765FE0CE0D8
:1031C000042004002000441E40B2002805D003481B
:1031D00064B2205CFFF758FEF4E710BDC40BFF1F7C
:1031E0000EB400B582B003A9009102466B460121DE
:1031F000034878440A30FDF70FF906BC5DF810FB70
:103200007D2300002DE9F84304000D0064B2002C7A
:1032100008D0022C2CD018D3042C4FD03BD3052C33
:103220005FD071E0DFF80C02006850F48060DFF8D6
:10323000041208604FF440716620FFF795FE4FF4CA
:1032400040716720FFF790FE5EE0DFF8E80100685C
:1032500050F40060DFF8DC1108604FF44071432047
:10326000FFF782FE4FF440714420FFF77DFE4BE0F4
:10327000DFF8C001006850F48050DFF8B811086032
:103280004FF440716320FFF76FFE4FF440716220EE
:10329000FFF76AFE38E0DFF89C01006850F4005048
:1032A000DFF8901108604FF440715020FFF75CFE8A
:1032B0004FF440715120FFF757FE25E0DFF8780109
:1032C000006850F48060DFF8701108604FF44071BE
:1032D0004E20FFF749FE4FF440714F20FFF744FEA8
:1032E00012E0DFF85401006850F40060DFF8481184
:1032F00008604FF440718920FFF736FE4FF44071AB
:103300008820FFF731FEFFE7DFF8300164B250F8A4
:103310002400C07810F0F300DFF8201164B251F8F7
:103320002410C870DFF8140164B250F824008078CB
:10333000DFF8081164B251F82410887064B2002CD0
:1033400002D064B2012C07D1DFF8F40000684FF41A
:103350007A714843814606E0DFF8E80000684FF4E0
:103360007A71484381462801B9FBF0F00600B6B2F5
:10337000B6F5005F02DB41F6FF700600B9FBF5F021
:10338000B6B2B0EB06100700BFB2202F03DBDC2182
:103390002D48FFF75AFE294864B250F824000078FF
:1033A00010F0E0008046C6F3042050EA08002349EC
:1033B00064B251F824100870204864B250F8240018
:1033C00046701E4864B250F82400807A10F0E00085
:1033D000804617F01F0050EA0800184964B251F8FF
:1033E00024108872154864B250F82400007C50F014
:1033F0008800124964B251F8241008740F4864B26E
:1034000050F82400C07850F00C000C4964B251F818
:103410002410C870BDE8F183084A40B252F8202059
:1034200012791206F8D5054A40B252F82020D1711F
:103430007047000034800440288004409C0BFF1F2C
:103440006412FF1F6C12FF1FCC53000010B5040064
:1034500064B2082C0DDA00220021224864B2205CFC
:10346000FFF782FC03211F4864B2205CFFF7A0FD38
:1034700014E0082004002000441E40B200280DD0B3
:1034800000220021174864B2205CFFF76DFC032185
:10349000144864B2205CFFF78BFDECE710BD10B55B
:1034A0000400104864B2205CFFF70AFD002801D137
:1034B000002000E0012010BD10B50400200040B243
:1034C000FFF7EDFF00280AD10A20FFF736FD2000A4
:1034D00040B2FFF7E4FF002801D1002000E0012006
:1034E00010BD0000BC0BFF1F00000000000000002A
:1034F0002020202020002000484848000000000034
:103500005050F850F85050002078A07028F020005B
:10351000C0C81020409818006090A040A890680093
:1035200060204000000000001020404040201000BB
:103530004020101010204000005020F820500000C3
:10354000002020F820200000000000000060204043
:10355000000000F8000000000000000000606000B3
:103560000008102040800000708898A8C88870006B
:103570002060202020207000708808304080F800F3
:10358000708808300888700010305090F8101000D3
:10359000F880F00808887000304080F0888870005B
:1035A000F8081020404040007088887088887000BB
:1035B000708888780810600000606000606000001B
:1035C000000060600060204010204080402010001B
:1035D0000000F800F800000080402010204080002B
:1035E000708808102000200070880868A8A8700063
:1035F000708888F888888800F08888F08888F000CB
:103600007088808080887000E09088888890E000D2
:10361000F88080F08080F800F88080F08080800062
:103620007088808098887800888888F888888800E2
:1036300070202020202070003810101010906000A2
:103640008890A0C0A0908800808080808080F80052
:1036500088D8A8A8888888008888C8A898888800FA
:103660007088888888887000F08888F08080800062
:1036700070888888A8906800F08888F0A0908800FA
:103680007088807008887000F8202020202020009A
:103690008888888888887000888888888850200072
:1036A000888888A8A8A8500088885020508888005A
:1036B0008888885020202000F80810204080F800DA
:1036C00070404040404070000080402010080000E2
:1036D00070101010101070002050880000000000C2
:1036E00000000000000000F8402010000000000072
:1036F00000007008788878008080B0C88888F00062
:1037000000007080808870000808689888887800B9
:1037100000007088F8807000304840E04040400071
:1037200000007888887808708080B0C88888880011
:1037300020006020202070001000301010109060D9
:10374000808090A0C0A090006020202020207000E9
:103750000000D0A8888888000000B0C88888880049
:1037600000007088888870000000F08888F08080F1
:1037700000007888887808080000B0C88080800041
:10378000000078807008F0004040E0404048300081
:103790000000888888986800000088888850200089
:1037A00000008888A8A85000000088502050880099
:1037B00000008888887808700000F8102040F80021
:1037C0001020204020201000202020202020200039
:1037D00040202010202040006890000000000000E1
:1037E0001820000000000000C020000000000000C1
:1037F0007088000000000000500000000000000081
:1038000068900000000000000000006020207000B0
:10381000006090F08888B08020007088F888880068
:1038200020007008788878003860A0B8E0A0B80060
:10383000704848E848487000E0407048487040E0F0
:103840000000D02878A05800A040A0107888700010
:103850006020302830207000708898A8C8887000D8
:1038600000007098A8C8700000007088F888880070
:103870000000F880E080F800000070202020700038
:103880000000708888887000000088888888700030
:10389000000088C8A8988800200020202020200050
:1038A00020002040808870001820000000000000E8
:1038B000C0200000000000002050000000000000B8
:1038C00050000000000000006890000000000000B0
:1038D00000000000000000200000000000000000C8
:1038E000002070A0A0A87020304040E04048B00008
:1038F00000008870507088008850F820F820200060
:1039000020202000202020003048205020906000FF
:103910008800000000000000F888A8B8A888F80017
:103920007008788870000000002850A0502800001F
:10393000000000F80808000000000070000000000F
:10394000F888A88898A8F800F80000000000000097
:1039500020502000000000000020702000700000B7
:1039600060902040F0000000E0106010E0000000D7
:1039700018200000000000000000888888C8B0807F
:10398000789898781818180000000030300000006F
:1039900040C04040E000000070888888700000004F
:1039A00000A0502850A000008890A050B05078107F
:1039B0008890A040B8081038C040C048D8283808BF
:1039C0000088502050880000002000F800200000EF
:1039D000103070FC70301000203038FC383020007F
:1039E000002070F820200000002020F87020000047
:1039F00000082868F860200000040408089050209F
:103A0000DFF800F0B10DFF1FDFF8A41340B231F86A
:103A1000201040B20128C0F2708140B2162880F216
:103A20006C810022DFF88C331A7089B2652904DAC0
:103A30000022DFF880335A707DE089B2C92904DAA8
:103A40000122DFF870335A7075E089B2B1F5967FC4
:103A500004DC0222DFF85C335A706CE089B2B1F505
:103A6000C87F04DC0322DFF84C335A7063E089B26C
:103A7000B1F5FA7F04DC0422DFF838335A705AE0DB
:103A800089B2B1F5167F04DC0522DFF828335A70BD
:103A900051E089B2B1F52F7F04DC0622DFF8143340
:103AA0005A7048E089B2B1F5487F04DC0722DFF89C
:103AB00004335A703FE089B2B1F5617F04DC08221B
:103AC000DFF8F0325A7036E089B2B1F57A7F04DC63
:103AD0000922DFF8E0325A702DE089B240F24D42FF
:103AE000914203DA0A22B34B5A7024E089B2B1F54D
:103AF000966F03DC0B22AF4B5A701CE089B240F288
:103B00001552914203DA0C22AA4B5A7013E089B283
:103B1000B1F5AF6F03DC0D22A64B5A700BE089B2F2
:103B200040F2DD52914203DA0E22A24B5A7002E0BB
:103B30000F22A04B5A7089B21A2903DA00229D4B3A
:103B40009A7069E089B2332903DA0122994B9A709D
:103B500062E089B24C2903DA0222964B9A705BE04C
:103B600089B2652903DA0322924B9A7054E089B234
:103B70007E2903DA04228F4B9A704DE089B297298F
:103B800003DA05228B4B9A7046E089B2B02903DA3A
:103B90000622884B9A703FE089B2C92903DA0722CE
:103BA000844B9A7038E089B2E22903DA0822814B0B
:103BB0009A7031E089B2FB2903DA09227D4B9A70B1
:103BC0002AE089B2B1F58A7F03DA0A22794B9A702A
:103BD00022E089B2B1F5967F03DC0B22754B9A7017
:103BE0001AE089B2B1F5A37F03DA0C22714B9A7007
:103BF00012E089B2B1F5AF7F03DC0D226D4B9A70F4
:103C00000AE089B2B1F5BC7F03DA0E22694B9A70E3
:103C100002E00F22674B9A7089B21A2903DA002258
:103C2000644BDA7069E089B2332903DA0122614B0F
:103C3000DA7062E089B24C2903DA02225D4BDA7055
:103C40005BE089B2652903DA03225A4BDA7054E04B
:103C500089B27E2903DA0422564BDA704DE089B22C
:103C6000972903DA0522534BDA7046E089B2B0296E
:103C700003DA06224F4BDA703FE089B2C92903DA32
:103C800007224C4BDA7038E089B2E22903DA0822C5
:103C9000484BDA7031E089B2FB2903DA0922454B3F
:103CA000DA702AE089B2B1F58A7F03DA0A22414B41
:103CB000DA7022E089B2B1F5967F03DC0B223D4B2E
:103CC000DA701AE089B2B1F5A37F03DA0C22394B1E
:103CD000DA7012E089B2B1F5AF7F03DC0D22354B0B
:103CE000DA700AE089B2B1F5BC7F03DA0E22314BFB
:103CF000DA7002E00F222F4BDA70704710B5040023
:103D0000200040B2FFF780FE2B48007810F0FD0045
:103D1000294908702848007850F01000264908709A
:103D2000B8202649087026480078C006FBD42448ED
:103D30000078C0F38100C0B20228F8D11D48C378D2
:103D40001C4882781B4841781A480078FFF758FED3
:103D5000174864B210EB8400807810F0070019490E
:103D60000870134864B210EB8400C07810F01F0094
:103D700050F0400014490870114800788006FBD5C7
:103D80000F4800784006FBD50C48007810F03F0043
:103D90000A4908700A480078C0F38100C0B20328BD
:103DA000F8D1034864B230F82400C0B210BD00005E
:103DB0002C0BFF1F840BFF1F0140064000400640F4
:103DC000064006400440064005400640DFF89C13CC
:103DD000097B490701D5401EFFE7704710B5040075
:103DE0000120FFF7F3FFDFF88413445410BD10B532
:103DF00004000020FFF7EAFFDFF87013445410BD01
:103E000010B40100DFF86403007BDFF86023127B4D
:103E10004A4052070BD5DFF854231278DFF84C33B1
:103E20005B78DFF848432370DFF840335A70DFF8DF
:103E30003C23117310BC7047F8B504000D00160048
:103E40001F00CA48B0F90400844203DAC748B0F939
:103E500004000400C548B0F90800B04203DAC348C2
:103E6000B0F908000600A64219DBC048B0F9060008
:103E7000854203DABD48B0F906000500BB48B0F939
:103E80000A00B84203DAB948B0F90A000700AF42A5
:103E900005DB3B00320029002000FEF7ADFDF1BD3F
:103EA0002DE9FA4F89B006001400189D5FF0000A52
:103EB000AF480068002813D019980590049517980A
:103EC00003901698029015980190149800900A9B00
:103ED000220009993000A64F3F683F68B847F8E0D4
:103EE00009980A990818401E0690A019401E0790CC
:103EF00014981599084301287AD19C48B0F9060016
:103F00000999401A0700012F0DDB0A98C01B0A907F
:103F10000A980128C0F2DD809448B0F906000990A3
:103F2000179800FB075506989049B1F90A10401AF6
:103F30000700012F06DB0A98C01B0A900A98012887
:103F4000C0F2C78007988949B1F90810401A0700E4
:103F5000012F00DBE41B002007008448B0F90400B7
:103F6000864233DA8148B0F90400801B0700E41B65
:103F70001698012808D002280ED0042814D008284A
:103F80001AD010281DD021E015EBE70537F0070007
:103F9000861917F0070719E015EBA70537F003009E
:103FA000861917F0030711E015EB670537F00100DC
:103FB000861917F0010709E07D19BE1900200700D6
:103FC00004E015EB4705BE1900200700012CC0F2E4
:103FD000808019980490039702951798019016987D
:103FE00000900A9B220009993000FEF714FD70E052
:103FF0001698D0F1080004900998019000200290D2
:1040000002980A99884264DA019815990818401EA6
:10401000039003985549B1F9061088424FDB534885
:10402000B0F90A000199884249DB5FF0000BA9460C
:10403000370000208046A04541DABBF1000F06D1D1
:1040400099F80000824619F10109082083465FFAB9
:104050008AFA0498514601418DF8001016981AFA10
:1040600000FA1698BBEB000B9DF80000002803D166
:104070003E48007B80071DD43C4840788DF8010005
:104080001998002806D019989DF80010085C374947
:10409000487003E09DF8000034494870039B149871
:1040A000C019421E01993800FFF7C6FE9DF80100B5
:1040B0002E49487018F101081498C719BBE70298F7
:1040C000401C0290019815990818019017984519FD
:1040D00096E70BB0BDE8F08F80B5264800F05AF89F
:1040E00001BD10B50024FFF7F7FFFEF7E0FC204309
:1040F000040000F059F80420FFF782FE40F6FF7339
:1041000040F6FF7200210020FFF796FE0020FFF727
:1041100077FEC046C046200010BD10B50400200048
:1041200000F02AF810BD10B50400200000F02CF8B3
:1041300010BD10B504000D48406BA04206D00B48DE
:1041400044632000FFF7E9FFFFF751FE10BD10B5F3
:1041500004000648006BA04206D004480463200017
:10416000FFF7DBFFFFF73AFE10BD00000C0EFF1F4C
:10417000480EFF1F100EFF1F38B504002000C04678
:10418000C0460500280032BD10B504002000C0461E
:10419000C04610BD00210180002141807F21818027
:1041A0003F21C1807047000038B500200400FF2C7B
:1041B0000BDC2000C0B2FFF7B6FF0500290020008D
:1041C000C0B2C046C046641CF1E731BD80B500F006
:1041D000B5F9C748C7490860C7484088C549096854
:1041E00009880818C4494880C448B0F90000C24989
:1041F000B1F90210884203DAC0480088BE494880FD
:10420000BD484088BB4909684988401ABA49488076
:10421000B948B0F90200002802D50020B64948800C
:104220000021242000F0F2F90221B348B0F9020085
:1042300000F00DFA0020B0498880AF488088AD4971
:1042400009688988401AAC498880AB488088A949A8
:104250000968C9880818A8498880A748B0F90200E9
:10426000002804D0A448B0F90200012839D1A1489F
:104270000068B0F90800012814D19F48B0F9020085
:1042800000280FD19C480088401E9B4908809A480E
:10429000B0F90000002803D500209749088001E00C
:1042A000FEF744FD93480068B0F90800012818D1D2
:1042B0009148B0F90200012813D18F480088401CB2
:1042C0008D4908808E48B0F900008B49B1F9001083
:1042D000884204DA8A4800888749088001E0FEF7AE
:1042E00025FD8548B0F90000002802D100F00EF845
:1042F00009E08148B0F90000012802D100F06AF815
:1043000001E000F0A8F8FEF7EEFC01BD00B585B0B5
:10431000002000B2082806DA00216A4600B222F81E
:104320001010401CF5E7744880886946724AB2F95B
:10433000022021F812000021002000F067F97148E6
:1043400000F090F93821602000F060F96E4800F02C
:1043500089F91021022000F059F95CA000F082F9DF
:1043600001220421BDF90400801C00F05EF918212F
:10437000022000F04BF956A000F074F9012204214C
:10438000BDF90600801C00F050F92021022000F049
:104390003DF950A000F066F901220421BDF90800A2
:1043A000801C00F042F91021422000F02FF94AA0B1
:1043B00000F058F91821422000F028F947A000F039
:1043C00051F92021422000F021F945A000F04AF9DE
:1043D00005B000BD80B50021002000F017F94B4862
:1043E00000F040F93821002000F010F9484800F0B2
:1043F00039F93821602000F009F9434800F032F91A
:104400001021022000F002F936A000F02BF918214B
:10441000022000F0FBF834A000F024F92021022053
:1044200000F0F4F831A000F01DF91021422000F056
:10443000EDF829A000F016F91821422000F0E6F866
:1044400026A000F00FF92021422000F0DFF824A080
:1044500000F008F901BD80B50021002000F0D6F879
:104460002C4800F0FFF83821002000F0CFF8284851
:1044700000F0F8F81021022000F0C8F819A000F0B0
:10448000F1F81821022000F0C1F817A000F0EAF8B6
:104490002021022000F0BAF814A000F0E3F8102167
:1044A000422000F0B3F80CA000F0DCF81821422004
:1044B00000F0ACF809A000F0D5F82021422000F06F
:1044C000A5F807A000F0CEF801BD000032500000B2
:1044D000334900003444000035000000360000007D
:1044E00037000000320000003300000034000000FC
:1044F0004C0EFF1F080EFF1F000EFF1F080CFF1FB2
:104500000A0CFF1FE4550000EC550000F4550000B4
:10451000FC5500000456000010B5002400200400E3
:104520002648B0F90000844207DA0022002124481E
:10453000205CFEF719FC641CF2E710BD10B50024E6
:10454000002004001D48B0F9000024B2844206DABD
:1045500000201C4924B221F81400641CF2E700205A
:10456000040024B2052C09DA200000B200F02CF877
:10457000144924B221F81400641CF2E70520040059
:104580000E48B0F9000024B2844209DA200000B2DB
:1045900000F007F80B4924B221F81400641CEFE77F
:1045A00010BD10B50400064824B2205CFEF788FC5C
:1045B000002801D1012000E0002010BD0C0CFF1FDD
:1045C000B40BFF1F4C0EFF1F10B50400200000B2FB
:1045D000FFF7E7FF01280AD17820FEF7AEFC2000A4
:1045E00000B2FFF7DEFF012801D1012000E000202A
:1045F00010BD0000010004488184002070470100C4
:1046000001484184002070470C0EFF1F70B5040064
:104610000D002000FFF7F3FF06002800FFF7EAFF78
:1046200030430600300040B270BD7FB504000D007D
:10463000160001A800906B463200D2B22900C9B220
:10464000200000F0BDF801A800F00CF87FBD38B5DF
:1046500004000D0000222900C9B22000FFF7E5FF89
:1046600031BD00002DE9FC470400002C00F09480CF
:1046700000F01CF980464948B0F92200070000F01C
:10468000F1F806004548808C801B4449888494F9E1
:104690000000002875D047F6FF71200000F052F9A5
:1046A00081464946200000F070F982463B4890F868
:1046B0002C0010F00300C0B2012806D0022806D159
:1046C00002209AFBF0F0050003E0554601E00020CF
:1046D00005003248408C401B304948842F48408CAC
:1046E000ADF80000BDF800001AEB0000401EADF868
:1046F00004002A48808CADF80200BDF8020018EBD7
:104700000000401EADF806006A464946200000F051
:1047100060F9BDF80200214988844946200000F074
:1047200093F9041994F900000A2803D094F90000C1
:104730000D281AD1194890F82C0010F00300C0B2CF
:10474000401E012802D81548478403E01348008C16
:104750001249488494F900000A280CD10F48808C33
:1047600018EB00000D49888405E0BDF800001AEB45
:1047700000000A49488494F90000002801D0641C14
:1047800085E70648808C3018044988840348808D6A
:1047900030F0030001498885BDE8F3870C0EFF1F48
:1047A00002001068002809D50868431C0B602D23FF
:1047B0000370106840421060012000E00020704744
:1047C0002DE9F14181B0884614001D00290001A89F
:1047D000FFF7E6FFB8EB00008046E4B2002C01D002
:1047E000B8F1010801981D495FFA88F851F82810BE
:1047F000884206D319485FFA88F850F82800401E0E
:1048000001905FFA88F8B8F1000F22D04046B0F16D
:104810000108C0B2E4B2A04205D12868411C296059
:104820000F49097801700D485FFA88F850F82800A0
:104830000700019890FBF7F00600019876B207FB9D
:10484000160001902868411C296016F130010170A2
:10485000D7E7002029680870BDE8F38138540000CC
:10486000C012FF1F00201C4991F82C1011F00C0100
:10487000C9B2042904D0082910D00C2906D014E0AC
:1048800015498969097D491E08000EE012498969A8
:10489000097D022291FBF2F1080006E00E498969C8
:1048A000097D022291FBF2F1080070470A498969EB
:1048B000497D094A926992F91720514308007047CF
:1048C00038B50400200080B20349896949688847E7
:1048D0000500280032BD00000C0EFF1F71B581B02D
:1048E0000C0015004B480069002806D029004948F3
:1048F000006900F0BFF8002823D0464880690069AD
:10490000002807D021000198424A926912699268F2
:10491000904716E0641E002C13D401A800F080F824
:104920000600300080B23B498969096888473A48E7
:1049300000680028EED0300080B237490968884707
:10494000E8E773BD31B50C000025009800281AD0A7
:10495000304880690069002807D0210000982D4A5E
:1049600092691269526890470EE0A5420BDA6846D8
:1049700000F056F880B2002802D080B20A2800D198
:1049800001E06D1CF1E7280032BD71B581B00C006B
:104990000025019800281AD01E4880690069002867
:1049A00007D0210001981B4A92691269126890474A
:1049B0000EE0641E002C0AD401A800F031F80600B5
:1049C000300080B2FFF77CFF40190500F1E72800B6
:1049D00076BD7CB504000D00160010480068002864
:1049E00005D06A4629002000FFF778FF11E06846ED
:1049F00031000822FCF7A4FCBDF8000005494884FA
:104A0000BDF80200034988846A4629002000FFF7A8
:104A100065FF73BD0C0EFF1F440EFF1F480EFF1FE6
:104A200070B504002068050028001149C9690968AB
:104A30008847060028000E49C96949688847451912
:104A40002560300080B270BDF8B504000D0000276D
:104A50002800451E002808D020000549C96949687A
:104A6000884706003419F719F2E73800F2BD000054
:104A70000C0EFF1F0200B1F90600B2F90230984295
:104A800013DBB2F90600B1F9023098420DDBB1F93F
:104A90000400B2F90030984207DBB2F90400B1F922
:104AA0000030984201DB012000E000207047000048
:104AB0002DE9F04F8BB081467248B0F92250714811
:104AC000B0F924606F4880698769B7F80C80404668
:104AD0001FFA89F980B281450FD3F8891FFA89F945
:104AE00048450AD3386809901FFA89F9B9EB0800DC
:104AF00006905FF0FF3004002AE0B86879680991F9
:104B0000002821D00188884641461FFA89F989B2D8
:104B1000894514D341881FFA89F949450FD3028882
:104B2000B9EB0209426811001FFA89F911EB8901FA
:104B3000B1F900200692B1F902100C0008E05FF014
:104B4000FF310C00069403E05FF0FF310C00069487
:104B5000069810F1010F7BD04A488069007DB97C2E
:104B600001FB00FA387C089046488069007D0A9075
:104B70004448B0F92A0007900798FFF741F98346A7
:104B800040480590099806990AFB01000490B87CFA
:104B90000390012002903B48806990F91700019032
:104BA0003848806990F9160000900A9B089A3100F5
:104BB0002800FFF775F914F1010F1ED0079850F087
:104BC0000200FFF71DF92F48059009980AFB040021
:104BD0000490B87C0390012002902A48806990F9E3
:104BE000170001902748806990F9160000900A9BF1
:104BF000089A31002800FFF753F922488069007DA8
:104C000020498969497D88421DD2079802281AD017
:104C1000079890F00400FFF7F3F81A488069407D88
:104C2000331808981749896991F9161001FB005249
:104C300014488069007D13498969497D01FB006141
:104C40002800FFF7F9F85FFA8BFB5846FFF7D8F812
:104C50000C48B0F92200797C0A4A926992F9162030
:104C600051430818074948840BB0BDE8F08F010094
:104C7000044880698069407C024A926992F9162052
:104C8000504370470C0EFF1F02220A80704730B459
:104C9000020093699C89200089B280B2814205D3C9
:104CA000D88989B2884201D301200EE098680500B6
:104CB000002D09D0288889B2814205D3688889B23D
:104CC000884201D3012000E0002030BC7047000082
:104CD000DFF800F04B300000DFF800F03B2F000061
:104CE000F02054490870534800780006FBD551481D
:104CF00000787121084201D0002000E001207047B7
:104D000080B54D48006850F400204B490860494880
:104D100000780006FBD5F020464908700A20FFF70E
:104D2000DBFF01BD10B582B00400A4B24FF4805087
:104D300000FB04F000900920404908709DF8020033
:104D40003F4908709DF801003E4908709DF8000039
:104D50003D490870FFF7C4FF002801D100200EE094
:104D6000A4B2002C0AD15FF0FF327FF001034FF4B0
:104D70008161200080B200F003F800E0012016BD40
:104D8000F0B583B006000F0014001D00B6B24FF45A
:104D90008050BFB200FB06700190BFB2082097FBA5
:104DA000F0F101FB1071002903D0EA212748FFF739
:104DB0008FFFBFB2B7F5805F03DDEC212348FFF71B
:104DC00087FF9DF806001E4908709DF805001D49E3
:104DD00008709DF804001C49087000949DF80300B9
:104DE0001B4908709DF802001A4908709DF80100DF
:104DF000194908709DF800001849087007200F49EC
:104E0000087000959DF80300154908709DF8020090
:104E1000144908709DF80100134908709DF80000BE
:104E200012490870FFF75CFF002801D1002000E064
:104E30000120FEBD0000024004F0014007000240D6
:104E40000600024005000240040002401C5300001E
:104E50000B0002400A000240090002400800024024
:104E60000F0002400E0002400D0002400C00024004
:104E7000F0B4114E366834000F4E366856F47F0693
:104E80000D4F3E600E0616F0706656EA0076170566
:104E900017F470073E431F0417F470273E43074F73
:104EA0003E6000263500EDB29D4201D26D1CFAE74E
:104EB000014E3460F0BC704700F001404480044073
:104EC0009D00FFFF9E00FFFF9F00FFFFA000FFFF70
:104ED000A100FFFFA200FFFFFFFFFFFFFFFFFFFF9B
:104EE000FFFFFFFFFFFFFFFFFFFFFFFFFFFFFFFFD2
:104EF000FFFFFFFFFFFFFFFFFFFFFFFFFFFFFFFFC2
:104F00007E00FFFF7600FFFF7F00FFFF8000FFFFB6
:104F10008100FFFF8200FFFF8300FFFF8400FFFF8F
:104F20008500FFFF8600FFFF8700FFFF8800FFFF6F
:104F30008900FFFF8A00FFFF8B00FFFF8C00FFFF4F
:104F40008D00FFFF8E00FFFF8F00FFFF9000FFFF2F
:104F50009100FFFF9200FFFF9300FFFF9400FFFF0F
:104F60007D00FFFF9500FFFF9600FFFF9700FFFF0A
:104F70009800FFFF9900FFFF9A00FFFF7700FFFFF7
:104F8000700079007000780070007A0070007C007A
:104F900070007B006600FFFF6800FFFF23007D00BC
:104FA000710079007100780071007A0071007B0057
:104FB000720079007200780072007A0072007B0043
:104FC0006900FFFF75007C007300790073007800B2
:104FD00073007A0073007C0073007B009B00FFFF6E
:104FE0006E00FFFF740079007400780074007A008E
:104FF00074007B00390078006A00FFFF6500FFFF46
:105000004100600041005F00410061004100630019
:10501000410062006700FFFF6B00FFFF43007D005F
:105020004500600045005F004500610045006200EA
:105030006400600064005F0064006100640062005E
:105040006C00FFFF4E0063004F0060004F005F00E8
:105050004F0061004F0063004F0062009C00FFFFA3
:105060006F00FFFF55005F005500600055006100B4
:105070005500620059005F006D00FFFF590062009B
:1050800080B500F095F800F02AF800F00AF8FDF776
:10509000F9FF012201210420FDF766FE00F0A8F8C7
:1050A000FEE780B50C20FEF729FE33490860324840
:1050B00000684FF47A714843304908602F4800680F
:1050C0002F490968C1F30361491CB0FBF1F02D4978
:1050D00008605FF4E1310420FEF794F801BD2DE98A
:1050E000F8432948294988420DD000208046B8F568
:1050F000826F08D2254850F82800234941F828003B
:1051000018F10108F3E7204800F07EF82048070076
:105110002048060020480400A01B80464046B0F10D
:105120000108002804D030783870761C7F1CF5E721
:105130001A4881461A480500B5EB090080464046EA
:10514000B0F10108002805D0002089F8000019F10D
:105150000109F4E713481449144A531A9846434680
:10516000B3F10108002B04D00B780370491C401CDC
:10517000F5E7BDE8F18300006812FF1F6412FF1F0E
:10518000448004406C12FF1F0000FF1F000000005D
:105190001004FF1FC41C0000C4240000000EFF1FE9
:1051A000C412FF1F100CFF1FD04C0000C04E0000A7
:1051B00080B500F008F80C4800884FF6FE710840F2
:1051C0000949088001BDEFF3118072B64CF22051FD
:1051D000064A11804DF62811044A1180C0B20028F9
:1051E00000D162B670470000002005400E20054047
:1051F00010B504480468FFF78FF900F038F8FEF79F
:10520000E5FFFCE71456000010B504004FF40070F1
:1052100094FBF0F101FB1041002903D01E2103484B
:10522000FDF713FF0248046010BD000004540000A5
:1052300008ED00E010B5040014482061201DFEF7C1
:10524000A9FF1348A06111482061012020757FF05B
:10525000704020637FF0704060630020FEF769FFBC
:105260007FF07F40FEF773FF0A48E06110BD10B584
:105270002E2009490870C046C0460848FFF7DAFFEB
:10528000FEF72FFF0400200010BD0000100EFF1FCE
:10529000E0540000C8550000C012FF1F0C0EFF1F95
:1052A00019E050F8041BCB0744BFA9F101035918BA
:1052B000121F0023042A41F8043BF9D25FEA827CE2
:1052C0000B4604D54FF0000CA1F800C09B1CD10781
:1052D00044BF0021197050F8042B002AE1D1704717
:1052E0000A2A2A2A2A64656661756C745F6973727A
:1052F00020656E7465726564206F6E2076656374D8
:105300006F722025642A2A2A2A2A0A0A257320492C
:105310006E7465727275707400000000433A5C55DB
:10532000736572735CF1D2BAE9B1F65C4465736B74
:10533000746F705C4E5850436172323031375C4349
:105340006869705C7372635C4D4B36305F666C618C
:1053500073682E6300000000433A5C5573657273F6
:105360005CF1D2BAE9B1F65C4465736B746F705C42
:105370004E5850436172323031375C436869705C1B
:105380007372635C4D4B36305F5379735469636B52
:105390002E630000433A5C55736572735CF1D2BAB8
:1053A000E9B1F65C4465736B746F705C4E585043A2
:1053B0006172323031375C436869705C7372635C70
:1053C0004D4B36305F6770696F2E6300433A5C5512
:1053D000736572735CF1D2BAE9B1F65C4465736BC4
:1053E000746F705C4E5850436172323031375C4399
:1053F0006869705C7372635C4D4B36305F756172C7
:10540000742E6300433A5C55736572735CF1D2BAD3
:10541000E9B1F65C4465736B746F705C4E58504331
:105420006172323031375C436869705C7372635CFF
:105430006D6973632E630000010000000A00000024
:1054400064000000E803000010270000A0860100AF
:1054500040420F008096980000E1F50500CA9A3B93
:1054600010B5074979441831064C7C44163404E0E1
:105470000A68081D511888470146A142F8D110BD9D
:10548000500000005C000000417373657274696F26
:105490006E206661696C656420696E2025732061E9
:1054A00074206C696E652025640A00004EF68851F0
:1054B000CEF20001086840F470000860BFF34F8F1F
:1054C000BFF36F8F4FF00070E1EE100A70470000DD
:1054D000D1FDFFFFC4040000000EFF1F000000000C
:1054E000B14A00006F4C0000894C00008F4C000056
:1054F0000000000008080101A05500000705070092
:105500000ABDF8D0D0BDE2CBF8B2D9D7F7A3ACC76B
:10551000EBD6D8D0C2CBA2C8EBB9CCBCFE00000001
:10552000007880B27047010001207047010001201F
:105530007047020011700120704700000120C04632
:10554000002801D0FFF78CFF0020C046C046FFF7BF
:105550004FFE00F000F800F001B8000007463846A2
:1055600000F002F8FBE7000080B5C046C046024AE2
:1055700011001820ABBEFBE72600020038B5044638
:105580000D46284600F006F8A84218BF0024204621
:1055900032BD00000149FDF76BBD00BFC80BFF1F06
:1055A000E8340000E83400000C56000020007E00C3
:1055B000060601000ABDF8C8EBCBC0D1ADBBB7B53C
:1055C000C8B4FDA3A100000021550000275500002C
:1055D0002D55000033550000C046C046FFF766FF5A
:1055E000FFF7ACFF4D454E55312D0000314E45586B
:1055F000540000004D454E55322D0000304C4153B3
:10560000540000004D454E55332D00009000FF0022
:10561000C04E00000101000000000000000000007A
:10562000000000000000000000000000000000007A
:1056300000000000FFFFFFFFFFFFFFFF0000000072
:10564000000000000000000000000000000000005A
:10565000000000000000000000000000000000004A
:10566000FFFFFFFFFFFF0000000000000000000040
:10567000000000000000000000000000000000002A
:10568000000000000000000000000000000000001A
:10569000000000000000000000000000000000000A
:04000005000055D9C9
:00000001FF
